:100000000C943A000C94C5010C94C5010C94C501E4
:100010000C94C5010C94C5010C94C5010C94C50148
:100020000C94C5010C94C5010C94C5010C94C50138
:100030000C94C5010C9489010C94C5010C94C50164
:100040000C94C5010C94C5010C94C5010C94C50118
:100050000C94C5010C94C5010C94C5010C94C50108
:100060000C94C5010C94C5010100017600039801B0
:100070007601788011241FBECFEFD8E0DEBFCDBF60
:10008000E8E6F0E040E017C0B591A59135912591E3
:10009000059107FD0CC095918591EF01F92FE82F8F
:1000A00005900D92A217B307D9F7FE0104C01D9267
:1000B000A217B307E1F7E437F40731F70E94F10024
:0800C0000C949B01F894FFCFA2
:1000C800CF93DF93CDB7DEB7C255D1090FB6F894F9
:1000D800DEBF0FBECDBF8AB18C608AB982E5E0E091
:1000E800F1E0BE016F5F7F4FDB0101900D928A95B1
:1000F800E1F72FEF85EA9EE0215080409040E1F73C
:1001080000C000008BB11BB82FE789EA93E02150AB
:1001180080409040E1F700C000002A9A2FE789EA62
:1001280093E0215080409040E1F700C000005A9AC7
:100138002FE789EA93E0215080409040E1F700C022
:1001480000005B9A2FE789EA93E0215080409040B5
:10015800E1F700C0000080E842E050E00E9457014B
:100168002FE789EA93E0215080409040E1F700C0F2
:100178000000BE016B5F7F4F80E84AE050E00E94BC
:1001880057012FE789EA93E0215080409040E1F73A
:1001980000C00000BE01675E7F4F80E847E150E085
:1001A8000E9457012FE789EA93E021508040904050
:1001B800E1F700C00000BE01695B7F4F80E846E0C0
:1001C80050E00E945701CE5ADF4F0FB6F894DEBFB9
:0A01D8000FBECDBFDF91CF91089557
:1001E200CF93DF93CDB7DEB7A4970FB6F894DEBFF7
:1001F2000FBECDBF0E94BF010E9464008CE0E2E509
:10020200F1E0DE01119601900D928A95E1F78CE002
:10021200EEE5F1E0DE011D9601900D928A95E1F77F
:100222008CE0EAE6F1E0DE01599601900D928A95A2
:10023200E1F700EC1AE580E090E00E94A60101508F
:100242001109C9F7BE016F5F7F4F80E846E050E0B9
:100252000E94570108E611E38FEF9FEF0E94A6016B
:1002620001501109C9F7BE01635F7F4F80E846E084
:1002720050E00E9457010AED18E280E090E00E94EF
:10028200A60101501109C9F7BE01675E7F4F80E8E0
:1002920046E050E00E94570104E111E280E098EF4D
:0C02A2000E94A60101501109C9F7FFCF0E
:1002AE006F927F928F92CF92DF92EF92411551050E
:1002BE0011F13B01882E6B01E82E440F551F640E81
:1002CE00751E811C57FD8A945A9AF6015E2D0E9466
:1002DE00B001872F0E94B801F6018491E7FC80815E
:1002EE000E94B8015A9882E0C80ED11CE11CC614B7
:1002FE00D704E80449F7EF90DF90CF908F907F906E
:04030E006F9008954F
:100312008F938FB78F939F938091760190917701FE
:10032200019690937701809376019F918F918FBF71
:040332008F911895FA
:10033600EC010E94CA010E94C901CE010E94CB01B4
:06034600CE010E94C70178
:10034C00CF93C82F892F0E94B8018C2F0E94B8011F
:04035C00CF910895A0
:1003600057FD03C06591759108956191719108954C
:0E0370002A988EBD0DB407FEFDCF2A9A08957F
:0C037E0084B18C6284B980E58CBD0895C8
:04038A000C940000CF
:04038E000E94620067
:020392000895CC
:020394000895CA
:020396000895C8
:10039800FDFDFDFD00EF04EE041BFEFEFEFE90EFEA
:1003A800044A3F7F04EE064390EF83090008AF0B31
:1003B800000A00050006000700EF0CEE90EF800031
:1003C800B0EF024900EF017F81E102E276E283E1CA
:1003D800018090EF000008EF03188312AF13001597
:0203E8000016FD
:1003EA0008EF031870129C131415141608EF03185B
:1003FA006B1297131915191608EF03186612921340
:04040A001E151E1687
:00000001FF
