:100000000C943A000C945D050C945D050C945D0510
:100010000C945D050C945D050C945D050C945D05D8
:100020000C945D050C945D050C945D050C945D05C8
:100030000C945D050C94A6040C945D050C945D0570
:100040000C945D050C945D050C945D050C945D05A8
:100050000C945D050C945D050C945D050C945D0598
:100060000C945D050C945D0501000152000ACC0161
:100070005201668011241FBECFEFD8E0DEBFCDBF96
:10008000E8E6F0E040E017C0B591A59135912591E3
:10009000059107FD0CC095918591EF01F92FE82F8F
:1000A00005900D92A217B307D9F7FE0104C01D9267
:1000B000A217B307E1F7E437F40731F70E9476009F
:0800C0000C94E904F894FFCF51
:0C00C80008EF0318661292131E151E1696
:0C00D40008EF03186B129713191519168A
:0C00E00008EF031870129C13141514167E
:1000EC000E943C050E9471010E9408050E94FE04BA
:1000FC000E947C04C0ECDAE580E090E00E94F404FD
:10010C002197D1F746E050E060EE70E080E00E946D
:10011C00B303C8E6D1E38FEF9FEF0E94F40421975D
:10012C00D1F746E050E064ED70E080E00E94B3034C
:10013C00CAEDD8E280E090E00E94F4042197D1F758
:10014C000F2EF4E8EF2EF12CF02D01E810E00F2E1D
:10015C00F1E47F2EF02D6894882485F899249394EB
:10016C000F2EF6E8AF2EB12CF02DC12CDD24D3943C
:10017C00299A8AE090E00E9491042998F701118253
:10018C001082F801708286BA96BAB59BFECFF70141
:10019C0011821082F801908286BA96BA109265018B
:1001AC0010926401B59BFECFF5016081718180E0F6
:1001BC0090E060935601709357018093580190938F
:1001CC0059010E9440032EEA37E44BE654E40E94A6
:1001DC005205609352017093530180935401909394
:1001EC0055010E94B804AC019093630180936201A5
:1001FC009C01A4E6B0E00E94DA049601241B350BA6
:10020C0040E050E00E945A04309361012093600159
:10021C003695279536952795ABE7B4E10E94DA041D
:10022C0096958795BC016150710980E090E00E9421
:10023C003E0326E636E646E750E40E9452052FE6DA
:10024C0032E143E85AE30E9456050E94E50370939D
:10025C005F0160935E0180E090E00E943E0323E327
:10026C0033E948E853E40E9420050E94E5037093AB
:10027C005D0160935C016E31710580F446E050E0E5
:10028C0068EC70E080E00E94B303C4E1D1E28FE13E
:10029C0090E00E94F4042197D1F712C06F317105E0
:1002AC0078F046E050E068EC70E080E00E94B30328
:1002BC00C4E1D1E280E098EF0E94F4042197D1F7D9
:1002CC0060915201709153018091540190915501AC
:0602DC000E947B034DCFE0
:1002E200CF93DF93CDB7DEB7C255D1090FB6F894DD
:1002F200DEBF0FBECDBF8AB18C608AB982E5E0E075
:10030200F1E0BE016F5F7F4FDB0101900D928A9594
:10031200E1F72FEF85EA9EE0215080409040E1F71F
:1003220000C000008BB11BB82FE789EA93E021508F
:1003320080409040E1F700C000002A9A2FE789EA46
:1003420093E0215080409040E1F700C000005A9AAB
:100352002FE789EA93E0215080409040E1F700C006
:1003620000005B9A2FE789EA93E021508040904099
:10037200E1F700C0000080E842E050E00E94B303D1
:100382002FE789EA93E0215080409040E1F700C0D6
:100392000000BE016B5F7F4F80E84AE050E00E94A0
:1003A200B3032FE789EA93E0215080409040E1F7C0
:1003B20000C00000BE01675E7F4F80E847E150E069
:1003C2000E94B3032FE789EA93E0215080409040D6
:1003D200E1F700C00000BE01695B7F4F80E846E0A4
:1003E20050E00E94B303CE5ADF4F0FB6F894DEBF3F
:0A03F2000FBECDBFDF91CF9108953B
:1003FC0010C00E942E0558F00E94270540F029F4E9
:10040C005F3F29F00C94420551110C9436050C9465
:10041C005A050E94380468F39923B1F3552391F3DC
:10042C00951B550BBB27AA2762177307840738F057
:10043C009F5F5F4F220F331F441FAA1FA9F335D0B4
:10044C000E2E3AF0E0E832D091505040E695001C68
:10045C00CAF72BD0FE2F29D0660F771F881FBB1F22
:10046C00261737074807AB07B0E809F0BB0B802D00
:10047C00BF01FF2793585F4F3AF09E3F510578F02C
:10048C000C9442050C9436055F3FE4F3983ED4F38C
:10049C00869577956795B795F7959F5FC9F7880F00
:1004AC00911D9695879597F90895E1E0660F771F52
:1004BC00881FBB1F621773078407BA0720F0621BE3
:0E04CC00730B840BBA0BEE1F88F7E0950895B2
:1004DA000FC00E94270538F00E942E0520F09523B0
:1004EA0011F00C9442050C945A0511240C9436050B
:1004FA000E94380470F3959FC1F3950F50E0551F81
:10050A00629FF001729FBB27F00DB11D639FAA275E
:10051A00F00DB11DAA1F649F6627B00DA11D661FAD
:10052A00829F2227B00DA11D621F739FB00DA11DCE
:10053A00621F839FA00D611D221F749F3327A00D88
:10054A00611D231F849F600D211D822F762F6A2F24
:10055A0011249F5750409AF0F1F088234AF0EE0F89
:10056A00FF1FBB1F661F771F881F91505040A9F7B6
:10057A009E3F510580F00C9442050C9436055F3F6E
:10058A00E4F3983ED4F3869577956795B795F795F2
:10059A00E7959F5FC1F7FE2B880F911D969587956A
:0405AA0097F9089520
:1005AE0011C00E94270538F00E942E0520F039F464
:1005BE009F3F19F426F40C945A050EF4E095E7FBD0
:1005CE000C944205E92F0E94380458F3BA176207BB
:1005DE0073078407950720F079F4A6F50C9435057A
:1005EE000EF4E0950B2EBA2FA02D0B01B901900140
:1005FE000C01CA01A0011124FF27591B99F0593F84
:10060E0050F4503E68F11A16F040A22F232F342FCB
:10061E004427585FF3CF469537952795A795F04019
:10062E005395C9F77EF41F16BA0B620B730B840B2E
:10063E00BAF09150A1F0FF0FBB1F661F771F881FE6
:10064E00C2F70EC0BA0F621F731F841F48F487953E
:10065E0077956795B795F7959E3F08F0B0CF939530
:0E066E00880F08F09927EE0F9795879508954D
:10067C00E89409C097FB3EF4909580957095619530
:10068C007F4F8F4F9F4F9923A9F0F92F96E9BB27E6
:10069C009395F695879577956795B795F111F8CF62
:1006AC00FAF4BB0F11F460FF1BC06F5F7F4F8F4FCD
:1006BC009F4F16C0882311F096E911C0772321F0C3
:1006CC009EE8872F762F05C0662371F096E8862F5B
:1006DC0070E060E02AF09A95660F771F881FDAF7B2
:0A06EC00880F9695879597F90895F9
:1006F600CF93DF9320E030E040EA50E40E944D05BE
:100706008823C4F480915A0190915B01892B29F5C5
:10071600C0E0D0E0CE010E945F050E944805219608
:10072600CF3FD105B9F781E090E090935B018093CC
:100736005A0113C080915A0190915B01019769F4A7
:10074600CFEFD0E0CE010E945F050E9448052197B9
:10075600C9F710925B0110925A01DF91CF9108956B
:100766006F927F928F92CF92DF92EF924115510551
:1007760011F13B01882E6B01E82E440F551F640EC4
:10078600751E811C57FD8A945A9AF6015E2D0E94A9
:100796001105872F0E941905F6018491E7FC8081D7
:1007A6000E9419055A9882E0C80ED11CE11CC61495
:1007B600D704E80449F7EF90DF90CF908F907F90B1
:0407C6006F90089593
:1007CA000E94400488F09F5798F0B92F9927B75193
:1007DA00B0F0E1F0660F771F881F991F1AF0BA95DB
:1007EA00C9F714C0B13091F00E943505B1E00895FF
:1007FA000C943505672F782F8827B85F39F0B93FF1
:10080A00CCF3869577956795B395D9F73EF490958D
:0E081A008095709561957F4F8F4F9F4F089589
:10082800990F0008550FAA0BE0E8FEEF16161706F9
:10083800E807F907C0F012161306E407F50798F061
:10084800621B730B840B950B39F40A2661F0232B7A
:10085800242B252B21F408950A2609F4A140A695F6
:080868008FEF811D811D089531
:1008700057FD9058440F551F59F05F3F71F0479551
:10088000880F97FB991F61F09F3F79F08795089536
:10089000121613061406551FF2CF4695F1DF08C055
:1008A000161617061806991FF1CF86957105610572
:0408B000089408950B
:1008B400A1E21A2EAA1BBB1BFD010DC0AA1FBB1F60
:1008C400EE1FFF1FA217B307E407F50720F0A21BD2
:1008D400B30BE40BF50B661F771F881F991F1A943F
:1008E40069F760957095809590959B01AC01BD0169
:0408F400CF01089593
:1008F800559A5D9884B5836084BD85B5877F85BD2D
:1009080085B5836085BD85B58B7F85BD84B58062DF
:0A09180084BD84B58F7E84BD089570
:100922008093B3001092B200E0EBF0E0808182602D
:100932008083E1EBF0E0808181608083B99BFECF10
:0A0942001092B10082E087BB089517
:10094C008F938FB78F939F938091640190916501E2
:10095C00019690936501809364019F918F918FBF55
:04096C008F911895BA
:10097000EAE7F0E0808180648083808184FFFDCF9E
:10098000EAE7F0E08081806180838091790090E0E7
:020990000895C8
:10099200092E0394000C11F4882352F0BB0F40F48B
:1009A200BF2B11F460FF04C06F5F7F4F8F4F9F4FCB
:0209B2000895A6
:1009B400A29FB001B39FC001A39F700D811D11249C
:0E09C400911DB29F700D811D1124911D08958B
:1009D200EC010E9464050E946305CE010E94650538
:0609E200CE010E94610538
:1009E800CF93C82F892F0E9419058C2F0E941905B3
:0409F800CF910895FE
:1009FC00389880E680937C0087E880937A00109288
:040A0C007B000895CE
:100A1000219A289A789481E080936F001092800048
:020A2000089537
:100A220057FD03C065917591089561917191089583
:0E0A32002A988EBD0DB407FEFDCF2A9A0895B6
:0E0A40005058BB27AA270E94D7020C94C90465
:0E0A4E0000240A9416161706180609060895C5
:0E0A5C0000240A9412161306140605060895C7
:0E0A6A00E894BB2766277727CB0197F90895FC
:0C0A780084B18C6284B980E58CBD0895C7
:0C0A840097F99F6780E870E060E008953B
:0A0A900080E49FE10197F1F708955B
:0A0A9A000E94140408F481E008959E
:080AA4000E94FE010C94C9043C
:080AAC000E946D020C94C904C4
:060AB4009FEF80EC0895A5
:040ABA000C94000098
:040ABE0088BD089552
:040AC2000E9462002C
:020AC600089591
:020AC80008958F
:020ACA0008958D
:100ACC00FDFDFDFD00EF04EE041BFEFEFEFE90EFAF
:100ADC00044A3F7F04EE064390EF83090008AF0BF6
:100AEC00000A00050006000700EF0CEE90EF8000F6
:100AFC00B0EF024900EF017F81E102E276E283E18F
:100B0C00018090EF000008EF03188312AF1300155B
:020B1C000016C1
:00000001FF
