:100000000C9438000C94B1010C94B1010C94B10122
:100010000C94B1010C94B1010C94B1010C94B10198
:100020000C94B1010C94B1010C94B1010C94B10188
:100030000C94B1010C94B1010C94B1010C94B10178
:100040000C94B1010C94B1010C94B1010C94B10168
:100050000C94B1010C94B1010C94B1010C94B10158
:100060000C94B1010C94B101010001760003700001
:1000700011241FBECFEFD8E0DEBFCDBFE8E6F0E031
:1000800040E017C0B591A59135912591059107FDE7
:100090000CC095918591EF01F92FE82F05900D92F5
:1000A000A217B307D9F7FE0104C01D92A217B30728
:1000B000E1F7EF36F40731F70E94EF000C94870167
:0400C000F894FFCFE2
:1000C400CF93DF93CDB7DEB7C255D1090FB6F894FD
:1000D400DEBF0FBECDBF8AB18C608AB982E5E0E095
:1000E400F1E0BE016F5F7F4FDB0101900D928A95B5
:1000F400E1F72FEF85EA9EE0215080409040E1F740
:1001040000C000008BB11BB82FE789EA93E02150AF
:1001140080409040E1F700C000002A9A2FE789EA66
:1001240093E0215080409040E1F700C000005A9ACB
:100134002FE789EA93E0215080409040E1F700C026
:1001440000005B9A2FE789EA93E0215080409040B9
:10015400E1F700C0000080E842E050E00E94550151
:100164002FE789EA93E0215080409040E1F700C0F6
:100174000000BE016B5F7F4F80E84AE050E00E94C0
:1001840055012FE789EA93E0215080409040E1F740
:1001940000C00000BE01675E7F4F80E847E150E089
:1001A4000E9455012FE789EA93E021508040904056
:1001B400E1F700C00000BE01695B7F4F80E846E0C4
:1001C40050E00E945501CE5ADF4F0FB6F894DEBFBF
:0A01D4000FBECDBFDF91CF9108955B
:1001DE00CF93DF93CDB7DEB7A4970FB6F894DEBFFB
:1001EE000FBECDBF0E94AB010E9462008CE0E2E523
:1001FE00F1E0DE01119601900D928A95E1F78CE007
:10020E00EEE5F1E0DE011D9601900D928A95E1F783
:10021E008CE0EAE6F1E0DE01599601900D928A95A6
:10022E00E1F700EC1AE580E090E00E9492010150A7
:10023E001109C9F7BE016F5F7F4F80E846E050E0BD
:10024E000E94550108E611E38FEF9FEF0E94920185
:10025E0001501109C9F7BE01635F7F4F80E846E088
:10026E0050E00E9455010AED18E280E090E00E94F5
:10027E00920101501109C9F7BE01675E7F4F80E8F8
:10028E0046E050E00E94550104E111E280EE9FEF3E
:0C029E000E94920101501109C9F7FFCF26
:1002AA006F927F928F92CF92DF92EF924115510512
:1002BA0011F13B01882E6B01E82E440F551F640E85
:1002CA00751E811C57FD8A945A9AF6015E2D0E946A
:1002DA009C01872F0E94A401F6018491E7FC80818A
:1002EA000E94A4015A9882E0C80ED11CE11CC614CF
:1002FA00D704E80449F7EF90DF90CF908F907F9072
:04030A006F90089553
:10030E00EC010E94B6010E94B501CE010E94B70118
:06031E00CE010E94B301B4
:10032400CF93C82F892F0E94A4018C2F0E94A4016F
:04033400CF910895C8
:1003380057FD03C065917591089561917191089574
:0E0348002A988EBD0DB407FEFDCF2A9A0895A7
:0C03560084B18C6284B980E58CBD0895F0
:040362000C940000F7
:040366000E94600091
:02036A000895F4
:02036C000895F2
:02036E000895F0
:10037000FDFDFDFD00EF04EE041BFEFEFEFE90EF12
:10038000044A3F7F04EE064390EF83090008AF0B59
:10039000000A00050006000700EF0CEE90EF800059
:1003A000B0EF024900EF017F81E102E276E283E1F2
:1003B000018090EF000008EF03188312AF130015BF
:0203C000001625
:1003C20008EF031870129C131415141608EF031883
:1003D2006B1297131915191608EF03186612921368
:0403E2001E151E16B0
:00000001FF
